:02000000532982
:1000060083120313F801F9011030FC00710DF80D8D
:10001600F90D7408F8027508031C750FF902031828
:100026001B287408F80775080318750FF9070310DD
:0A003600F00DF10DFC0B0928080085
:1000400083120313C8010530480203182E284808FC
:100050004707840020308000C80A23284808470743
:1000600084008001C80348084707C9000A30F4002B
:10007000F5014508F0004608F10003207808F0007B
:100080007908F1003030F0074908840070088000DA
:100090000A30F400F5014508F0004608F10003209D
:1000A0007008C5007108C60000307106031D5A288B
:1000B00000307006031D5D285F28C8033328080040
:1000C00083160313981866280000602883124508D9
:0400D000990008008B
:0E00D4008312031338088A00370882000800E0
:1000E2000E3083120313FD00FD0B7528000008007B
:1000F200831603139816903083129800831687177D
:10010200071383128C1E88281A08F0008228080020
:1001120083120313C101C2013C08C3003D08C4009D
:1001220080303D06F00080307002031D9A280030B6
:100132003C020318A8280130C1000030C2003C086C
:10014200003CC3003D08031C013EC401C402430835
:10015200C5004408C6003E08C70020200630BF0084
:100162000030C0004008003C031DB9283F08003C95
:100172000318D4283F083E07F20001303F02F00086
:100182000030031C013E4002F10070083E0784006B
:100192000008F00072088400700880000130BF027D
:1001A200031CC003B3283E088400203080004108AD
:1001B20042040319F228BF01C0013F083E07840030
:1001C2000008203A031DE928BF0A0319C00ADE28E5
:1001D2000130BF02031CC0033F083E0784002D30DC
:0401E2008000080091
:1001E600831203139F01C0309F043009F00070088A
:1001F60083169F051F179F1783123C08F000F00D0A
:100206007010F00D7010F00D701070089F041F1420
:1002160071201F151F1D112900000D291F101E0812
:10022600F100F00183161E08F0040030F104080006
:1002360083120313BE013C0884000008BD003D087C
:10024600003A031930293D08C5006020BE0A3E0861
:0C0256003C0784000008BD0022290800BD
:100262006A208A110A128000840AB70A0319B80A9E
:08027200F003031D312908000F
:10027A00FF3083120313B900FF30BA00FF30BB000E
:10028A00FF309F01C0309F043009F00070088316C8
:0C029A009F051F179F1783121F140800F8
:1002A60086213330831603139900181579203D21D2
:1002B600BC01F32070088312B1007108B200700807
:1002C600BC007108BD003330BE0089202030BC0060
:0A02D6001B213330BC001B216F29EF
:10030C0020308400113083120313F0007530B700D5
:08031C000130B8003121080096
:1002EA0041346E3461346C346F346734203476347C
:1002FA0061346C347534653420343A342034003433
:02030A000F34AE
:02400E004A2F37
:00000001FF
