:020000007C285A
:1000060083120313F101F20100307202031D0D2861
:10001600323071020318282806140330FC0012300F
:10002600FD00FD0B1428FC0B1428000006103230CE
:10003600FC00DD30FD00FD0B1E28FC0B1E28000019
:0C0046000000F10A0319F20A0728080064
:1000520083120313F101F20100307202031D3328EF
:100062003230710203184E2806140630FC00B530F7
:10007200FD00FD0B3A28FC0B3A2800000000061098
:100082002F30FC003A30FD00FD0B4528FC0B4528C3
:0C0092000000F10A0319F20A2D280800F2
:10009E0083120313F101F20100307202031D59287D
:1000AE003230710203187B2806140430FC00E13054
:1000BE00FD00FD0B6028FC0B602800307206031D4E
:1000CE006A2800307106031D6C2806103130FC00C2
:1000DE000B30FD00FD0B7128FC0B71280000000099
:0A00EE00F10A0319F20A5328080072
:1000F80083160313860103201530FB004B30FC00E8
:10010800BE30FD00FD0B8628FC0B8628FB0B8628DD
:1001180000004F201530FB004B30FC00BE30FD00C6
:10012800FD0B9428FC0B9428FB0B94280000292035
:100138001530FB004B30FC00BE30FD00FD0BA22843
:10014800FC0BA228FB0BA22800004F201530FB0057
:100158004B30FC00BE30FD00FD0BB028FC0BB02876
:0A016800FB0BB02800007F28B82828
:02400E004A2F37
:00000001FF
