:02000000AB282B
:10000600710DF80DF90D7408F8027508031C750FCB
:10001600F902F00DF10D0F30FC00710DF80DF90D20
:100026007408701C1C28F8027508031C750FF90269
:100036002128F80775080318750FF907F00DF10D5B
:10004600FC0B102870182D287408F807750803187B
:08005600750FF9070000080016
:0E005E00831203132D088A002C08820008006C
:10006C002F208A110A128000840AAC0A0319AD0AE7
:08007C00F003031D3628080003
:10008400831203137408003A031D51287508003ABB
:10009400031D5128FF30F0007F30F100AA2883129D
:1000A4000313FD01F901F801710870040319003408
:1000B40071087506FA00FA1BFD09FB01F51F672894
:1000C400F409F509F40A0319F50AF11F6E28F00979
:1000D400F109F00A0319F10A71087504FA00FA1B10
:1000E400832803207B189628FD1F0034F009F109AA
:1000F400F00A0319F10AF809F909F80A0319F90AC7
:100104000034F51F9228F11B8E287108F90070083D
:10011400F800F101F0017628F101F001F00A003451
:10012400F109F009FB0A7328F80A0319F90A74089B
:100134007802031D762875087902031D7628F901D3
:10014400F801F00A0319F10AF11F76280000FF34C0
:020154000800A1
:1001560083120313A001A1013F30A2000630A300C1
:100166005B30A4004F30A5006630A6006D30A700B6
:100176007D30A8000730A9007F30AA006F30AB00A1
:10018600831686018701831286018701FF30831655
:1001960088008312880107100A30F4000030F50049
:1001A6002008F0002108F10042207008223E840059
:1001B600000886001A30FC00F830FD00FD0BE1282F
:1001C600FC0BE1280000071487100A30F400003009
:1001D600F5002008F0002108F10042207808F00020
:1001E6007908F1007008223E8400000886001A3063
:1001F600FC00F830FD00FD0BFE28FC0BFE2800007D
:100206008714081C0C29A00A0319A10A081C0C292A
:100216000929881C15290130A002031CA103881C8A
:100226001529122980302106F00080307002031D46
:100236001E2900302002031C2C298030F00080305B
:1002460021067002031D29292008633C031C2C2962
:0A0256002E29A001A101CE282F29B6
:02400E004A2F37
:00000001FF
