:020000000328D3
:10000600403083120313A2007930A3002430A400E9
:100016003030A5001930A6001230A7000230A80023
:100026007830A900AA011030AB008316860183122E
:100036008601F101F20180307206F0008030700214
:10004600031D27280A307102031840287108223E32
:100056008400000886000630FB001330FC00AD303B
:10006600FD00FD0B3428FC0B3428FB0B3428000064
:100076000000F10A0319F20A1E280930F1000030C7
:10008600F20080307206F00080307002031D4D28A9
:1000960000307102031C67287108223E84000008A4
:1000A60086000630FB001330FC00AD30FD00FD0B72
:1000B6005A28FC0B5A28FB0B5A2800000000013076
:0C00C600F102031CF20344281C286828E7
:02400E004A2F37
:00000001FF
