:020000000328D3
:1000060083120313A201A30183168601FF30880021
:1000160083128601081C2C280630FB001330FC00D6
:10002600AD30FD00FD0B1528FC0B1528FB0B152824
:100036000000000000302306031D2328003022069E
:10004600031D2A280130A2000030A3002C28A2019B
:10005600A30100302306031D322801302206031DAA
:100066005528061486120630FB001330FC00AD300E
:10007600FD00FD0B3C28FC0B3C28FB0B3C2800003C
:100086000000061086160630FB001330FC00AD306B
:10009600FD00FD0B4C28FC0B4C28FB0B4C280000EC
:0C00A60000005728061086120D2858286C
:02400E004A2F37
:00000001FF
