:020000000328D3
:100006000730831603139C0006309F0086010F30CD
:1000160083128600013086000630FB001330FC0098
:10002600AD30FD00FD0B1528FC0B1528FB0B152824
:1000360000000000033086000630FB001330FC0091
:10004600AD30FD00FD0B2528FC0B2528FB0B2528D4
:1000560000000000023086000630FB001330FC0072
:10006600AD30FD00FD0B3528FC0B3528FB0B352884
:1000760000000000063086000630FB001330FC004E
:10008600AD30FD00FD0B4528FC0B4528FB0B452834
:1000960000000000043086000630FB001330FC0030
:1000A600AD30FD00FD0B5528FC0B5528FB0B5528E4
:1000B600000000000C3086000630FB001330FC0008
:1000C600AD30FD00FD0B6528FC0B6528FB0B652894
:1000D60000000000083086000630FB001330FC00EC
:1000E600AD30FD00FD0B7528FC0B7528FB0B752844
:1000F60000000000093086000630FB001330FC00CB
:10010600AD30FD00FD0B8528FC0B8528FB0B8528F3
:08011600000000000D288E28F6
:02400E004A2F37
:00000001FF
